{
    "_format": "hh-sol-artifact-1",
    "contractName": "DVote",
    "sourceName": "contracts/DVote.sol",
    "abi": [
        {
            "inputs": [],
            "stateMutability": "nonpayable",
            "type": "constructor"
        },
        {
            "anonymous": false,
            "inputs": [
                {
                    "indexed": true,
                    "internalType": "uint256",
                    "name": "id",
                    "type": "uint256"
                },
                {
                    "indexed": false,
                    "internalType": "uint256",
                    "name": "age",
                    "type": "uint256"
                },
                {
                    "indexed": false,
                    "internalType": "string",
                    "name": "name",
                    "type": "string"
                },
                {
                    "indexed": false,
                    "internalType": "string",
                    "name": "image",
                    "type": "string"
                },
                {
                    "indexed": false,
                    "internalType": "uint256",
                    "name": "voteCount",
                    "type": "uint256"
                },
                {
                    "indexed": false,
                    "internalType": "address",
                    "name": "_address",
                    "type": "address"
                },
                {
                    "indexed": false,
                    "internalType": "string",
                    "name": "ipfs",
                    "type": "string"
                }
            ],
            "name": "CandidateCreate",
            "type": "event"
        },
        {
            "anonymous": false,
            "inputs": [
                {
                    "indexed": true,
                    "internalType": "uint256",
                    "name": "voterID",
                    "type": "uint256"
                },
                {
                    "indexed": false,
                    "internalType": "string",
                    "name": "voterName",
                    "type": "string"
                },
                {
                    "indexed": false,
                    "internalType": "string",
                    "name": "voterImage",
                    "type": "string"
                },
                {
                    "indexed": false,
                    "internalType": "address",
                    "name": "voterAddress",
                    "type": "address"
                },
                {
                    "indexed": false,
                    "internalType": "uint256",
                    "name": "voterAllowed",
                    "type": "uint256"
                },
                {
                    "indexed": false,
                    "internalType": "bool",
                    "name": "givenVote",
                    "type": "bool"
                },
                {
                    "indexed": false,
                    "internalType": "uint256",
                    "name": "voterVote",
                    "type": "uint256"
                },
                {
                    "indexed": false,
                    "internalType": "string",
                    "name": "ipfs",
                    "type": "string"
                }
            ],
            "name": "VoterCreated",
            "type": "event"
        },
        {
            "inputs": [
                {
                    "internalType": "uint256",
                    "name": "",
                    "type": "uint256"
                }
            ],
            "name": "candidateAddress",
            "outputs": [
                {
                    "internalType": "address",
                    "name": "",
                    "type": "address"
                }
            ],
            "stateMutability": "view",
            "type": "function"
        },
        {
            "inputs": [],
            "name": "candidateId",
            "outputs": [
                {
                    "internalType": "uint256",
                    "name": "_value",
                    "type": "uint256"
                }
            ],
            "stateMutability": "view",
            "type": "function"
        },
        {
            "inputs": [
                {
                    "internalType": "address",
                    "name": "",
                    "type": "address"
                }
            ],
            "name": "candidates",
            "outputs": [
                {
                    "internalType": "uint256",
                    "name": "id",
                    "type": "uint256"
                },
                {
                    "internalType": "uint256",
                    "name": "age",
                    "type": "uint256"
                },
                {
                    "internalType": "string",
                    "name": "name",
                    "type": "string"
                },
                {
                    "internalType": "string",
                    "name": "image",
                    "type": "string"
                },
                {
                    "internalType": "uint256",
                    "name": "voteCount",
                    "type": "uint256"
                },
                {
                    "internalType": "address",
                    "name": "_address",
                    "type": "address"
                },
                {
                    "internalType": "string",
                    "name": "ipfs",
                    "type": "string"
                }
            ],
            "stateMutability": "view",
            "type": "function"
        },
        {
            "inputs": [],
            "name": "getCandidate",
            "outputs": [
                {
                    "internalType": "address[]",
                    "name": "",
                    "type": "address[]"
                }
            ],
            "stateMutability": "view",
            "type": "function"
        },
        {
            "inputs": [
                {
                    "internalType": "address",
                    "name": "address_",
                    "type": "address"
                }
            ],
            "name": "getCandidateData",
            "outputs": [
                {
                    "internalType": "uint256",
                    "name": "",
                    "type": "uint256"
                },
                {
                    "internalType": "uint256",
                    "name": "",
                    "type": "uint256"
                },
                {
                    "internalType": "string",
                    "name": "",
                    "type": "string"
                },
                {
                    "internalType": "string",
                    "name": "",
                    "type": "string"
                },
                {
                    "internalType": "uint256",
                    "name": "",
                    "type": "uint256"
                },
                {
                    "internalType": "address",
                    "name": "",
                    "type": "address"
                },
                {
                    "internalType": "string",
                    "name": "",
                    "type": "string"
                }
            ],
            "stateMutability": "view",
            "type": "function"
        },
        {
            "inputs": [],
            "name": "getCandidateLength",
            "outputs": [
                {
                    "internalType": "uint256",
                    "name": "",
                    "type": "uint256"
                }
            ],
            "stateMutability": "view",
            "type": "function"
        },
        {
            "inputs": [],
            "name": "getVotedVoterList",
            "outputs": [
                {
                    "internalType": "address[]",
                    "name": "",
                    "type": "address[]"
                }
            ],
            "stateMutability": "view",
            "type": "function"
        },
        {
            "inputs": [],
            "name": "getVoterLength",
            "outputs": [
                {
                    "internalType": "uint256",
                    "name": "",
                    "type": "uint256"
                }
            ],
            "stateMutability": "view",
            "type": "function"
        },
        {
            "inputs": [],
            "name": "getVoterList",
            "outputs": [
                {
                    "internalType": "address[]",
                    "name": "",
                    "type": "address[]"
                }
            ],
            "stateMutability": "view",
            "type": "function"
        },
        {
            "inputs": [
                {
                    "internalType": "address",
                    "name": "address_",
                    "type": "address"
                }
            ],
            "name": "getVoterdata",
            "outputs": [
                {
                    "internalType": "uint256",
                    "name": "",
                    "type": "uint256"
                },
                {
                    "internalType": "string",
                    "name": "",
                    "type": "string"
                },
                {
                    "internalType": "string",
                    "name": "",
                    "type": "string"
                },
                {
                    "internalType": "address",
                    "name": "",
                    "type": "address"
                },
                {
                    "internalType": "uint256",
                    "name": "",
                    "type": "uint256"
                },
                {
                    "internalType": "bool",
                    "name": "",
                    "type": "bool"
                },
                {
                    "internalType": "string",
                    "name": "",
                    "type": "string"
                }
            ],
            "stateMutability": "view",
            "type": "function"
        },
        {
            "inputs": [
                {
                    "internalType": "address",
                    "name": "address_",
                    "type": "address"
                },
                {
                    "internalType": "uint256",
                    "name": "age_",
                    "type": "uint256"
                },
                {
                    "internalType": "string",
                    "name": "name_",
                    "type": "string"
                },
                {
                    "internalType": "string",
                    "name": "image_",
                    "type": "string"
                },
                {
                    "internalType": "string",
                    "name": "_ipfs",
                    "type": "string"
                }
            ],
            "name": "setCandidate",
            "outputs": [],
            "stateMutability": "nonpayable",
            "type": "function"
        },
        {
            "inputs": [
                {
                    "internalType": "address",
                    "name": "_candidate",
                    "type": "address"
                },
                {
                    "internalType": "uint256",
                    "name": "_candidateId",
                    "type": "uint256"
                }
            ],
            "name": "vote",
            "outputs": [],
            "stateMutability": "nonpayable",
            "type": "function"
        },
        {
            "inputs": [
                {
                    "internalType": "uint256",
                    "name": "",
                    "type": "uint256"
                }
            ],
            "name": "votedVoters",
            "outputs": [
                {
                    "internalType": "address",
                    "name": "",
                    "type": "address"
                }
            ],
            "stateMutability": "view",
            "type": "function"
        },
        {
            "inputs": [],
            "name": "voterId",
            "outputs": [
                {
                    "internalType": "uint256",
                    "name": "_value",
                    "type": "uint256"
                }
            ],
            "stateMutability": "view",
            "type": "function"
        },
        {
            "inputs": [
                {
                    "internalType": "address",
                    "name": "address_",
                    "type": "address"
                },
                {
                    "internalType": "string",
                    "name": "name_",
                    "type": "string"
                },
                {
                    "internalType": "string",
                    "name": "image_",
                    "type": "string"
                },
                {
                    "internalType": "string",
                    "name": "ipfs_",
                    "type": "string"
                }
            ],
            "name": "voterRight",
            "outputs": [],
            "stateMutability": "nonpayable",
            "type": "function"
        },
        {
            "inputs": [
                {
                    "internalType": "address",
                    "name": "",
                    "type": "address"
                }
            ],
            "name": "voters",
            "outputs": [
                {
                    "internalType": "uint256",
                    "name": "voterID",
                    "type": "uint256"
                },
                {
                    "internalType": "string",
                    "name": "voterName",
                    "type": "string"
                },
                {
                    "internalType": "string",
                    "name": "voterImage",
                    "type": "string"
                },
                {
                    "internalType": "address",
                    "name": "voterAddress",
                    "type": "address"
                },
                {
                    "internalType": "uint256",
                    "name": "voterAllowed",
                    "type": "uint256"
                },
                {
                    "internalType": "bool",
                    "name": "givenVote",
                    "type": "bool"
                },
                {
                    "internalType": "uint256",
                    "name": "voterVote",
                    "type": "uint256"
                },
                {
                    "internalType": "string",
                    "name": "ipfs",
                    "type": "string"
                }
            ],
            "stateMutability": "view",
            "type": "function"
        },
        {
            "inputs": [
                {
                    "internalType": "uint256",
                    "name": "",
                    "type": "uint256"
                }
            ],
            "name": "votersAddress",
            "outputs": [
                {
                    "internalType": "address",
                    "name": "",
                    "type": "address"
                }
            ],
            "stateMutability": "view",
            "type": "function"
        },
        {
            "inputs": [],
            "name": "votingOrganiser",
            "outputs": [
                {
                    "internalType": "address",
                    "name": "",
                    "type": "address"
                }
            ],
            "stateMutability": "view",
            "type": "function"
        }
    ],
    "bytecode": "0x608060405234801561001057600080fd5b5033600260006101000a81548173ffffffffffffffffffffffffffffffffffffffff021916908373ffffffffffffffffffffffffffffffffffffffff1602179055506126f4806100616000396000f3fe608060405234801561001057600080fd5b50600436106101165760003560e01c80638ab66a90116100a2578063b28d92ae11610071578063b28d92ae1461031c578063c5036fd41461033a578063cd948ab714610370578063f4abecd21461038e578063f7522a83146103aa57610116565b80638ab66a90146102735780638e945685146102a95780639f91e6bf146102c7578063a3ec138d146102e557610116565b806343242daa116100e957806343242daa146101bb57806358f17f83146101eb5780635f74bbde1461020957806370218b85146102255780637831ffb31461024357610116565b80630361419e1461011b57806305ad45a4146101375780632a466ac7146101555780633a88251a1461018b575b600080fd5b61013560048036038101906101309190611a7e565b6103c8565b005b61013f61066b565b60405161014c9190611b52565b60405180910390f35b61016f600480360381019061016a9190611b6d565b610678565b6040516101829796959493929190611c28565b60405180910390f35b6101a560048036038101906101a09190611cd8565b610a32565b6040516101b29190611d05565b60405180910390f35b6101d560048036038101906101d09190611cd8565b610a71565b6040516101e29190611d05565b60405180910390f35b6101f3610ab0565b6040516102009190611b52565b60405180910390f35b610223600480360381019061021e9190611d20565b610abc565b005b61022d610c83565b60405161023a9190611e1e565b60405180910390f35b61025d60048036038101906102589190611cd8565b610d11565b60405161026a9190611d05565b60405180910390f35b61028d60048036038101906102889190611b6d565b610d50565b6040516102a09796959493929190611c28565b60405180910390f35b6102b1610f4a565b6040516102be9190611e1e565b60405180910390f35b6102cf610fd8565b6040516102dc9190611b52565b60405180910390f35b6102ff60048036038101906102fa9190611b6d565b610fe4565b604051610313989796959493929190611e5b565b60405180910390f35b6103246111f1565b6040516103319190611e1e565b60405180910390f35b610354600480360381019061034f9190611b6d565b61127f565b6040516103679796959493929190611eee565b60405180910390f35b610378611647565b6040516103859190611d05565b60405180910390f35b6103a860048036038101906103a39190611f72565b61166d565b005b6103b2611895565b6040516103bf9190611b52565b60405180910390f35b3373ffffffffffffffffffffffffffffffffffffffff16600260009054906101000a900473ffffffffffffffffffffffffffffffffffffffff1673ffffffffffffffffffffffffffffffffffffffff1614610458576040517f08c379a000000000000000000000000000000000000000000000000000000000815260040161044f9061208d565b60405180910390fd5b61046260006118a2565b600061046e60006118b8565b90506000600760008773ffffffffffffffffffffffffffffffffffffffff1673ffffffffffffffffffffffffffffffffffffffff168152602001908152602001600020905060008160040154146104fa576040517f08c379a00000000000000000000000000000000000000000000000000000000081526004016104f1906120f9565b60405180910390fd5b8481600101908161050b9190612325565b50858160030160006101000a81548173ffffffffffffffffffffffffffffffffffffffff021916908373ffffffffffffffffffffffffffffffffffffffff160217905550828160070190816105609190612325565b50838160020190816105729190612325565b508181600001819055506064816006018190555060008160050160006101000a81548160ff0219169083151502179055506006869080600181540180825580915050600190039060005260206000200160009091909190916101000a81548173ffffffffffffffffffffffffffffffffffffffff021916908373ffffffffffffffffffffffffffffffffffffffff160217905550817ff5f39971dd62d9929e3a9feaa6bb77fe7c7da0001babff8a65a7e51ad0201c1986868985600401548660050160009054906101000a900460ff1687600601548a60405161065b97969594939291906123f7565b60405180910390a2505050505050565b6000600680549050905090565b6000806060806000806060600460008973ffffffffffffffffffffffffffffffffffffffff1673ffffffffffffffffffffffffffffffffffffffff16815260200190815260200160002060000154600460008a73ffffffffffffffffffffffffffffffffffffffff1673ffffffffffffffffffffffffffffffffffffffff16815260200190815260200160002060010154600460008b73ffffffffffffffffffffffffffffffffffffffff1673ffffffffffffffffffffffffffffffffffffffff168152602001908152602001600020600201600460008c73ffffffffffffffffffffffffffffffffffffffff1673ffffffffffffffffffffffffffffffffffffffff168152602001908152602001600020600301600460008d73ffffffffffffffffffffffffffffffffffffffff1673ffffffffffffffffffffffffffffffffffffffff16815260200190815260200160002060040154600460008e73ffffffffffffffffffffffffffffffffffffffff1673ffffffffffffffffffffffffffffffffffffffff16815260200190815260200160002060050160009054906101000a900473ffffffffffffffffffffffffffffffffffffffff16600460008f73ffffffffffffffffffffffffffffffffffffffff1673ffffffffffffffffffffffffffffffffffffffff16815260200190815260200160002060060184805461088190612148565b80601f01602080910402602001604051908101604052809291908181526020018280546108ad90612148565b80156108fa5780601f106108cf576101008083540402835291602001916108fa565b820191906000526020600020905b8154815290600101906020018083116108dd57829003601f168201915b5050505050945083805461090d90612148565b80601f016020809104026020016040519081016040528092919081815260200182805461093990612148565b80156109865780601f1061095b57610100808354040283529160200191610986565b820191906000526020600020905b81548152906001019060200180831161096957829003601f168201915b5050505050935080805461099990612148565b80601f01602080910402602001604051908101604052809291908181526020018280546109c590612148565b8015610a125780601f106109e757610100808354040283529160200191610a12565b820191906000526020600020905b8154815290600101906020018083116109f557829003601f168201915b505050505090509650965096509650965096509650919395979092949650565b60038181548110610a4257600080fd5b906000526020600020016000915054906101000a900473ffffffffffffffffffffffffffffffffffffffff1681565b60068181548110610a8157600080fd5b906000526020600020016000915054906101000a900473ffffffffffffffffffffffffffffffffffffffff1681565b60008060000154905081565b6000600760003373ffffffffffffffffffffffffffffffffffffffff1673ffffffffffffffffffffffffffffffffffffffff16815260200190815260200160002090508060050160009054906101000a900460ff1615610b51576040517f08c379a0000000000000000000000000000000000000000000000000000000008152600401610b48906124c7565b60405180910390fd5b6000816004015403610b98576040517f08c379a0000000000000000000000000000000000000000000000000000000008152600401610b8f90612533565b60405180910390fd5b60018160050160006101000a81548160ff0219169083151502179055508181600601819055506005339080600181540180825580915050600190039060005260206000200160009091909190916101000a81548173ffffffffffffffffffffffffffffffffffffffff021916908373ffffffffffffffffffffffffffffffffffffffff1602179055508060040154600460008573ffffffffffffffffffffffffffffffffffffffff1673ffffffffffffffffffffffffffffffffffffffff1681526020019081526020016000206004016000828254610c779190612582565b92505081905550505050565b60606003805480602002602001604051908101604052809291908181526020018280548015610d0757602002820191906000526020600020905b8160009054906101000a900473ffffffffffffffffffffffffffffffffffffffff1673ffffffffffffffffffffffffffffffffffffffff1681526020019060010190808311610cbd575b5050505050905090565b60058181548110610d2157600080fd5b906000526020600020016000915054906101000a900473ffffffffffffffffffffffffffffffffffffffff1681565b6004602052806000526040600020600091509050806000015490806001015490806002018054610d7f90612148565b80601f0160208091040260200160405190810160405280929190818152602001828054610dab90612148565b8015610df85780601f10610dcd57610100808354040283529160200191610df8565b820191906000526020600020905b815481529060010190602001808311610ddb57829003601f168201915b505050505090806003018054610e0d90612148565b80601f0160208091040260200160405190810160405280929190818152602001828054610e3990612148565b8015610e865780601f10610e5b57610100808354040283529160200191610e86565b820191906000526020600020905b815481529060010190602001808311610e6957829003601f168201915b5050505050908060040154908060050160009054906101000a900473ffffffffffffffffffffffffffffffffffffffff1690806006018054610ec790612148565b80601f0160208091040260200160405190810160405280929190818152602001828054610ef390612148565b8015610f405780601f10610f1557610100808354040283529160200191610f40565b820191906000526020600020905b815481529060010190602001808311610f2357829003601f168201915b5050505050905087565b60606005805480602002602001604051908101604052809291908181526020018280548015610fce57602002820191906000526020600020905b8160009054906101000a900473ffffffffffffffffffffffffffffffffffffffff1673ffffffffffffffffffffffffffffffffffffffff1681526020019060010190808311610f84575b5050505050905090565b60018060000154905081565b600760205280600052604060002060009150905080600001549080600101805461100d90612148565b80601f016020809104026020016040519081016040528092919081815260200182805461103990612148565b80156110865780601f1061105b57610100808354040283529160200191611086565b820191906000526020600020905b81548152906001019060200180831161106957829003601f168201915b50505050509080600201805461109b90612148565b80601f01602080910402602001604051908101604052809291908181526020018280546110c790612148565b80156111145780601f106110e957610100808354040283529160200191611114565b820191906000526020600020905b8154815290600101906020018083116110f757829003601f168201915b5050505050908060030160009054906101000a900473ffffffffffffffffffffffffffffffffffffffff16908060040154908060050160009054906101000a900460ff169080600601549080600701805461116e90612148565b80601f016020809104026020016040519081016040528092919081815260200182805461119a90612148565b80156111e75780601f106111bc576101008083540402835291602001916111e7565b820191906000526020600020905b8154815290600101906020018083116111ca57829003601f168201915b5050505050905088565b6060600680548060200260200160405190810160405280929190818152602001828054801561127557602002820191906000526020600020905b8160009054906101000a900473ffffffffffffffffffffffffffffffffffffffff1673ffffffffffffffffffffffffffffffffffffffff168152602001906001019080831161122b575b5050505050905090565b600060608060008060006060600760008973ffffffffffffffffffffffffffffffffffffffff1673ffffffffffffffffffffffffffffffffffffffff16815260200190815260200160002060000154600760008a73ffffffffffffffffffffffffffffffffffffffff1673ffffffffffffffffffffffffffffffffffffffff168152602001908152602001600020600101600760008b73ffffffffffffffffffffffffffffffffffffffff1673ffffffffffffffffffffffffffffffffffffffff168152602001908152602001600020600201600760008c73ffffffffffffffffffffffffffffffffffffffff1673ffffffffffffffffffffffffffffffffffffffff16815260200190815260200160002060030160009054906101000a900473ffffffffffffffffffffffffffffffffffffffff16600760008d73ffffffffffffffffffffffffffffffffffffffff1673ffffffffffffffffffffffffffffffffffffffff16815260200190815260200160002060040154600760008e73ffffffffffffffffffffffffffffffffffffffff1673ffffffffffffffffffffffffffffffffffffffff16815260200190815260200160002060050160009054906101000a900460ff16600760008f73ffffffffffffffffffffffffffffffffffffffff1673ffffffffffffffffffffffffffffffffffffffff16815260200190815260200160002060070185805461149690612148565b80601f01602080910402602001604051908101604052809291908181526020018280546114c290612148565b801561150f5780601f106114e45761010080835404028352916020019161150f565b820191906000526020600020905b8154815290600101906020018083116114f257829003601f168201915b5050505050955084805461152290612148565b80601f016020809104026020016040519081016040528092919081815260200182805461154e90612148565b801561159b5780601f106115705761010080835404028352916020019161159b565b820191906000526020600020905b81548152906001019060200180831161157e57829003601f168201915b505050505094508080546115ae90612148565b80601f01602080910402602001604051908101604052809291908181526020018280546115da90612148565b80156116275780601f106115fc57610100808354040283529160200191611627565b820191906000526020600020905b81548152906001019060200180831161160a57829003601f168201915b505050505090509650965096509650965096509650919395979092949650565b600260009054906101000a900473ffffffffffffffffffffffffffffffffffffffff1681565b3373ffffffffffffffffffffffffffffffffffffffff16600260009054906101000a900473ffffffffffffffffffffffffffffffffffffffff1673ffffffffffffffffffffffffffffffffffffffff16146116fd576040517f08c379a00000000000000000000000000000000000000000000000000000000081526004016116f490612628565b60405180910390fd5b61170760016118a2565b600061171360016118b8565b90506000600460008873ffffffffffffffffffffffffffffffffffffffff1673ffffffffffffffffffffffffffffffffffffffff1681526020019081526020016000209050858160010181905550848160020190816117729190612325565b50838160030190816117849190612325565b50828160060190816117969190612325565b50868160050160006101000a81548173ffffffffffffffffffffffffffffffffffffffff021916908373ffffffffffffffffffffffffffffffffffffffff1602179055508181600001819055506003879080600181540180825580915050600190039060005260206000200160009091909190916101000a81548173ffffffffffffffffffffffffffffffffffffffff021916908373ffffffffffffffffffffffffffffffffffffffff160217905550817fa0bb2859e614d6df5a180bd5c06e70c2f058288ebf559a5751e8865cda8654c987878785600401548c8960405161188496959493929190612648565b60405180910390a250505050505050565b6000600380549050905090565b6001816000016000828254019250508190555050565b600081600001549050919050565b6000604051905090565b600080fd5b600080fd5b600073ffffffffffffffffffffffffffffffffffffffff82169050919050565b6000611905826118da565b9050919050565b611915816118fa565b811461192057600080fd5b50565b6000813590506119328161190c565b92915050565b600080fd5b600080fd5b6000601f19601f8301169050919050565b7f4e487b7100000000000000000000000000000000000000000000000000000000600052604160045260246000fd5b61198b82611942565b810181811067ffffffffffffffff821117156119aa576119a9611953565b5b80604052505050565b60006119bd6118c6565b90506119c98282611982565b919050565b600067ffffffffffffffff8211156119e9576119e8611953565b5b6119f282611942565b9050602081019050919050565b82818337600083830152505050565b6000611a21611a1c846119ce565b6119b3565b905082815260208101848484011115611a3d57611a3c61193d565b5b611a488482856119ff565b509392505050565b600082601f830112611a6557611a64611938565b5b8135611a75848260208601611a0e565b91505092915050565b60008060008060808587031215611a9857611a976118d0565b5b6000611aa687828801611923565b945050602085013567ffffffffffffffff811115611ac757611ac66118d5565b5b611ad387828801611a50565b935050604085013567ffffffffffffffff811115611af457611af36118d5565b5b611b0087828801611a50565b925050606085013567ffffffffffffffff811115611b2157611b206118d5565b5b611b2d87828801611a50565b91505092959194509250565b6000819050919050565b611b4c81611b39565b82525050565b6000602082019050611b676000830184611b43565b92915050565b600060208284031215611b8357611b826118d0565b5b6000611b9184828501611923565b91505092915050565b600081519050919050565b600082825260208201905092915050565b60005b83811015611bd4578082015181840152602081019050611bb9565b60008484015250505050565b6000611beb82611b9a565b611bf58185611ba5565b9350611c05818560208601611bb6565b611c0e81611942565b840191505092915050565b611c22816118fa565b82525050565b600060e082019050611c3d600083018a611b43565b611c4a6020830189611b43565b8181036040830152611c5c8188611be0565b90508181036060830152611c708187611be0565b9050611c7f6080830186611b43565b611c8c60a0830185611c19565b81810360c0830152611c9e8184611be0565b905098975050505050505050565b611cb581611b39565b8114611cc057600080fd5b50565b600081359050611cd281611cac565b92915050565b600060208284031215611cee57611ced6118d0565b5b6000611cfc84828501611cc3565b91505092915050565b6000602082019050611d1a6000830184611c19565b92915050565b60008060408385031215611d3757611d366118d0565b5b6000611d4585828601611923565b9250506020611d5685828601611cc3565b9150509250929050565b600081519050919050565b600082825260208201905092915050565b6000819050602082019050919050565b611d95816118fa565b82525050565b6000611da78383611d8c565b60208301905092915050565b6000602082019050919050565b6000611dcb82611d60565b611dd58185611d6b565b9350611de083611d7c565b8060005b83811015611e11578151611df88882611d9b565b9750611e0383611db3565b925050600181019050611de4565b5085935050505092915050565b60006020820190508181036000830152611e388184611dc0565b905092915050565b60008115159050919050565b611e5581611e40565b82525050565b600061010082019050611e71600083018b611b43565b8181036020830152611e83818a611be0565b90508181036040830152611e978189611be0565b9050611ea66060830188611c19565b611eb36080830187611b43565b611ec060a0830186611e4c565b611ecd60c0830185611b43565b81810360e0830152611edf8184611be0565b90509998505050505050505050565b600060e082019050611f03600083018a611b43565b8181036020830152611f158189611be0565b90508181036040830152611f298188611be0565b9050611f386060830187611c19565b611f456080830186611b43565b611f5260a0830185611e4c565b81810360c0830152611f648184611be0565b905098975050505050505050565b600080600080600060a08688031215611f8e57611f8d6118d0565b5b6000611f9c88828901611923565b9550506020611fad88828901611cc3565b945050604086013567ffffffffffffffff811115611fce57611fcd6118d5565b5b611fda88828901611a50565b935050606086013567ffffffffffffffff811115611ffb57611ffa6118d5565b5b61200788828901611a50565b925050608086013567ffffffffffffffff811115612028576120276118d5565b5b61203488828901611a50565b9150509295509295909350565b7f4f6e6c79204f7267616e697a65722063616e2063726561746520566f74657200600082015250565b6000612077601f83611ba5565b915061208282612041565b602082019050919050565b600060208201905081810360008301526120a68161206a565b9050919050565b7f43616e20766f7465206675636b20796f75000000000000000000000000000000600082015250565b60006120e3601183611ba5565b91506120ee826120ad565b602082019050919050565b60006020820190508181036000830152612112816120d6565b9050919050565b7f4e487b7100000000000000000000000000000000000000000000000000000000600052602260045260246000fd5b6000600282049050600182168061216057607f821691505b60208210810361217357612172612119565b5b50919050565b60008190508160005260206000209050919050565b60006020601f8301049050919050565b600082821b905092915050565b6000600883026121db7fffffffffffffffffffffffffffffffffffffffffffffffffffffffffffffffff8261219e565b6121e5868361219e565b95508019841693508086168417925050509392505050565b6000819050919050565b600061222261221d61221884611b39565b6121fd565b611b39565b9050919050565b6000819050919050565b61223c83612207565b61225061224882612229565b8484546121ab565b825550505050565b600090565b612265612258565b612270818484612233565b505050565b5b818110156122945761228960008261225d565b600181019050612276565b5050565b601f8211156122d9576122aa81612179565b6122b38461218e565b810160208510156122c2578190505b6122d66122ce8561218e565b830182612275565b50505b505050565b600082821c905092915050565b60006122fc600019846008026122de565b1980831691505092915050565b600061231583836122eb565b9150826002028217905092915050565b61232e82611b9a565b67ffffffffffffffff81111561234757612346611953565b5b6123518254612148565b61235c828285612298565b600060209050601f83116001811461238f576000841561237d578287015190505b6123878582612309565b8655506123ef565b601f19841661239d86612179565b60005b828110156123c5578489015182556001820191506020850194506020810190506123a0565b868310156123e257848901516123de601f8916826122eb565b8355505b6001600288020188555050505b505050505050565b600060e0820190508181036000830152612411818a611be0565b905081810360208301526124258189611be0565b90506124346040830188611c19565b6124416060830187611b43565b61244e6080830186611e4c565b61245b60a0830185611b43565b81810360c083015261246d8184611be0565b905098975050505050505050565b7f596f75206861766520616c726561647920766f74656400000000000000000000600082015250565b60006124b1601683611ba5565b91506124bc8261247b565b602082019050919050565b600060208201905081810360008301526124e0816124a4565b9050919050565b7f796f752068617665206e6f20726967687420746f20766f746500000000000000600082015250565b600061251d601983611ba5565b9150612528826124e7565b602082019050919050565b6000602082019050818103600083015261254c81612510565b9050919050565b7f4e487b7100000000000000000000000000000000000000000000000000000000600052601160045260246000fd5b600061258d82611b39565b915061259883611b39565b92508282019050808211156125b0576125af612553565b5b92915050565b7f4f6e6c79204f7267616e697a65722043616e204372656174652043726561746560008201527f20612043616e6469646174650000000000000000000000000000000000000000602082015250565b6000612612602c83611ba5565b915061261d826125b6565b604082019050919050565b6000602082019050818103600083015261264181612605565b9050919050565b600060c08201905061265d6000830189611b43565b818103602083015261266f8188611be0565b905081810360408301526126838187611be0565b90506126926060830186611b43565b61269f6080830185611c19565b81810360a08301526126b18184611be0565b905097965050505050505056fea26469706673582212208631d92d639981a185dc6b7f97cff313d5a85d557cfbc8d131ce9e0244b7d1bc64736f6c63430008120033",
    "linkReferences": {},
    "deployedLinkReferences": {}
}